:020000040000fa
:080000000002040000000000f2
:020000040000fa
:100400006f8220006efe20000e01880000000000b8
:100410000c000700806e2000010020001100070082
:10042000000020000000e000020032000000020096
:10043000000000000c060200000000000040da008e
:100440000000fe004440a900000020000000e00081
:100450000300320000002000a00188004440a800f2
:100460000000060091018800800078000000eb0089
:1004700015003700e280400032a0b4009101ba00bc
:10048000e280400032a0b4009102ba00e280400055
:1004900032a0b4000002eb00472bde00f507b200eb
:1004a000602ce10004003a000059eb008301e900f0
:1004b000fdff3e00040037006128e100010032002a
:1004c0000082eb00040007001101ba000200e00006
:1004d000e8ff3a00000006003159ba008301e90044
:1004e0000c0032002159ba008301e90008003200f3
:1004f0000400e00003003a00e280400032a0b400b3
:10050000f5ff370011d9ba008301e900faff3a007c
:100510008100e800e180400032a0b4000000060045
:100520000040da000000fe00801f78004000b000ac
:100530000008eb004f007800801f7800100090004a
:100540000018eb000018eb000018eb000018eb009f
:100550000008eb004f0078000000060000a0fe003d
:10056000841f7800851f7800881f78008a1f780014
:100570004400f800080f20002802880000049000c2
:100580001005900030019000c00190009a05900085
:100590002b0598009a0578001b0598000300ca00f7
:1005a0000280ca000030cb001a00cd00380278006b
:1005b000ba0278004604c0004604c0000580ca00a4
:1005c0000030cb004604c0000580ca000000cb000c
:1005d0001e04c0001201c0000100cd009a05780081
:1005e0001b059800010d7800210098004400f900d7
:1005f0004f0578004f047800cf0278004f02780052
:100600000080fe000000060022c2bf006100600002
:100610000000060023c2bf000004a20061006000c9
:0406200000000600d0
:020000040000fa
:0200000401f009
:04000c00f8ff0000f9
:020000040000fa
:0200000401f009
:040010005bff000092
:020000040000fa
:0200000401f009
:040014007fff00006a
:020000040000fa
:0200000401f009
:04001800ffff0000e6
:020000040000fa
:0200000401f009
:04001c00deff000003
:020000040000fa
:1000080090020000900200009002000090020000a0
:100018009002000090020000900200009002000090
:100028009002000090020000900200009a06000072
:100038009002000090020000900200009002000070
:1000480090020000900200009002000012030000dd
:100058001a040000900200009002000090020000c4
:10006800900200009002000090020000ac06000020
:100078009002000090020000900200009002000030
:100088009002000090020000900200009002000020
:100098009002000090020000900200009002000010
:1000a8009002000090020000900200009002000000
:1000b80090020000900200009002000090020000f0
:1000c80090020000900200009002000090020000e0
:1000d80090020000900200009002000090020000d0
:1000e80090020000900200009002000090020000c0
:1000f80090020000900200009002000090020000b0
:10010800900200009002000090020000900200009f
:10011800900200009002000090020000900200008f
:10012800900200009002000090020000900200007f
:10013800900200009002000090020000900200006f
:10014800900200009002000090020000900200005f
:10015800900200009002000090020000900200004f
:10016800900200009002000090020000900200003f
:10017800900200009002000090020000900200002f
:10018800900200009002000090020000900200001f
:10019800900200009002000090020000900200000f
:1001a80090020000900200009002000090020000ff
:1001b80090020000900200009002000090020000ef
:1001c80090020000900200009002000090020000df
:1001d8009002000090020000900200001407000046
:1001e80090020000900200009002000090020000bf
:0801f8009002000090020000db
:020000040000fa
:10020800900200009002000090020000900200009e
:10021800900200009002000090020000900200008e
:100228009002000090020000900200009a06000070
:10023800900200009002000090020000900200006e
:1002480090020000900200009002000012030000db
:100258001a040000900200009002000090020000c2
:10026800900200009002000090020000ac0600001e
:10027800900200009002000090020000900200002e
:10028800900200009002000090020000900200001e
:10029800900200009002000090020000900200000e
:1002a80090020000900200009002000090020000fe
:1002b80090020000900200009002000090020000ee
:1002c80090020000900200009002000090020000de
:1002d80090020000900200009002000090020000ce
:1002e80090020000900200009002000090020000be
:1002f80090020000900200009002000090020000ae
:10030800900200009002000090020000900200009d
:10031800900200009002000090020000900200008d
:10032800900200009002000090020000900200007d
:10033800900200009002000090020000900200006d
:10034800900200009002000090020000900200005d
:10035800900200009002000090020000900200004d
:10036800900200009002000090020000900200003d
:10037800900200009002000090020000900200002d
:10038800900200009002000090020000900200001d
:10039800900200009002000090020000900200000d
:1003a80090020000900200009002000090020000fd
:1003b80090020000900200009002000090020000ed
:1003c80090020000900200009002000090020000dd
:1003d8009002000090020000900200001407000044
:1003e80090020000900200009002000090020000bd
:0803f8009002000090020000d9
:020000040000fa
:100624003600f800809fbe00829fbe00849fbe00fb
:10063400869fbe000400fa00c04080000000e00075
:1006440002003a0030118000c0408800c0408000a1
:1006540010079800100a20009e009000808f500020
:1006640018003200100a20009e009000808f500075
:1006740005003e00000a20009e009000808f50007c
:100684000a00320062003700200a20009e00900019
:10069400808f500011003200300a20009e0090002c
:1006a400808f50002b0032005900370001e4a8006d
:1006b40010c0b3001fe8b7000000eb00c040880082
:1006c4005300370001e4a9000000eb00c04088009b
:1006d4000040eb001fe8b7004d00370000418000e8
:1006e4000000e0000d003a001000200000418800e6
:1006f4008560a900200a200020118800c1ff07009e
:10070400e14f5000fdff3a0030118000e0408800c6
:10071400200a2000201188003d003700301180009d
:10072400a0408800a04080004800dd00a040880070
:10073400a1408000e040800000807000a04088005c
:100744000000eb00004188000000eb00c04088007e
:100754002f00370030118000004f780010418000d6
:100764000000e0001f003a00100020001041880043
:10077400114020009140780000c8b30000c0600020
:100784000004e0000c00320006c3bf0062406000b9
:100794000004e000fcff320030198000d0408800e3
:1007a400d040800010479800d04080004880de0090
:1007b4001ee8b700040037000040eb001047980023
:1007c4000040eb001ee8b70091ff07000004e000c2
:1007d400fdff3a001e4090000000fb00201188003d
:1007e4000a0037008aff07000004e000fdff3a001a
:1007f4001ec8bf000000fb00201188000000eb00b1
:10080400104188000000eb00c04088000643a900a6
:100814008560a9000080fa004f03be004f02be00ad
:100824004f01be004f00be003600f9000040060034
:100834000000fa008580a9000080fa00004006004c
:100844000000fa0021e2a90021a2a9002182a90046
:100854002162a9001122200091407800c0cfb3008a
:1008640000c0600021e2b70020e2a90020c2a90074
:1008740020a2a9002082a9002062a9000122200050
:100884009140780090cfb30000c0600020e2b70030
:100894002002a900800d20004011880023e2a80056
:1008a40023c2a80023a2a9002362a9002342a9000d
:1008b4002322a9002302a90022c2bf00f043b200f0
:1008c40022e2b70022a2a9002282a9002262a90082
:1008d4002242a9002222a9002202a90000402400e9
:1008e400900588008580a9009580a9008560a900ed
:1008f4009560a800416a20009140780000ccb300c4
:1009040000c060007040b300a4e6b700616d200031
:100914009140780000ccb30000c060003040b300c8
:10092400d6e6b70021e2a8002342a8000080fa001e
:10093400000006000000fa0043e4a80043c4a80035
:10094400314420009140780030cfb30000c06000f3
:1009540043e4b70043a4a9004384a9004324a900a5
:100964004304a90042c4bf00f043b20042e4b7000c
:1009740040c4bf00f043b20040e4b700800120004f
:100984005022880000032000602288004004a9004f
:100994004124a90044c4bf003040b30044e4b7007c
:1009a40055c4bf006f40600055e4b70041452000c6
:1009b4009140780000ccb30000c060000004a000a7
:1009c40054e4b70080042000302288004006200050
:1009d400902288000080fa00000006000000fa005f
:1009e4000103a90000e3a90000c3a90000a3a90012
:1009f400013020009140780080cfb30000c0600037
:100a04005040b30000e3b70091e0a900b10d20000d
:100a140091407800f0c8b30000c0600001c5b30085
:100a240001407000dbe0b700a1e0a8000243a90088
:100a34000263a9000283a9000623a9000be3a8000e
:100a4400b13020009140780000ceb30000c06000b7
:100a54000024a0000be3b7000643a9000ce3a9009f
:100a6400c13020009140780000ceb30000c0600087
:100a74000024a0000ce3b7000080fa000000060088
:100a84000000fa00008020005040880060ff200031
:100a940060408800a0802000a2fe07005140800032
:100aa4002031270080087800504080008080e800d2
:100ab40070d820008008780050408000e400400096
:100ac400f0a729008008780050408000e60040002c
:100ad40000ac20008008780050408000e80040000e
:100ae400f0532f0080087800207f20009040880079
:100af4000000eb00804088000080fa00000006003f
:100b04000000fa009040800080007800b04080002f
:100b1400808f5000120031000500370010002000c3
:100b24002700070090408000800fb00090408800ac
:100b34009040800080007800b0408000808f50009a
:100b4400f6ff36000d003700100020001c000700df
:100b54009040800081f02f00010040009040880008
:100b64009040800080007800b0408000808f50006a
:100b7400f5ff3e00b0408000904088000080fa00fd
:100b8400000006000000fa00c902a8009660a80050
:100b94006100a8006900a800d10a200091407800f3
:100ba400f0c8b30000c0600001c4b300014070008d
:100bb400ade0b7008660a9000080fa0000000600de
:100bc4000200fa00000f78000000eb0020418800ca
:100bd40000c4290010088800510a200091407800c0
:100be400f0c8b30000c0600001c4b300014070004d
:100bf400a5e0b7009460a80005e1a80020418000aa
:100c04009e0f5000fdff390005e1a9000080fa00a5
:100c1400000006000200fa0090022000303a88002a
:100c240044c7bf00f043b20044e7b700417420005a
:100c34009140780000ceb30000c0600044e7b700e4
:100c44001200200081072000a00920003374200036
:100c54008149780080497800824978001200200098
:100c6400610420007005200023742000814978006d
:100c7400804978008249780043c7bf000047b2002a
:100c8400f04f5000fcff3a0042c7bf000042b200e0
:100c94000004e000fcff320050c7a80051a7a800e0
:100ca40051c7bf007040b30051e7b70051e7a80037
:100cb40051c7bf000044b2000004e000fcff320052
:100cc40030c52000202088001aff070043ff0700da
:100cd4006bff0700dafe0700aaff070001e3a80084
:100ce4000040eb001fe8b7000000eb0090408800d4
:100cf40000003700b1408000a0408000808f500089
:100d040003003200a0408000b04088007cff070050
:100d140006c3bf00644060000004e000f5ff320039
:100d240040198000000f78000643a900f1ff370046
:100d3400801f78000000fa00204180000000e800d5
:100d4400204188008460a9000080fa004f007800e8
:100d540000400600809fbe000400fa0001c4bf00ea
:100d640001c8b300014060000004e0000c00320040
:100d740006c3bf00644060000004e000fcff3200d2
:100d840050198000100798001e009000104798002a
:100d94001e0090004880de00004f780004003700f9
:100da4000040eb00104798000040eb00004f780033
:100db40050052000201188000643a9008660a90080
:0c0dc4000080fa004f00be000040060056
:020000040000fa
:100dd0000a0800000e0000000000000000080000eb
:100de0000a00000000000000f60f00000a000000ea
:100df00000000000240800000200000002000000c3
:100e000000000000200800000400000002000000b4
:100e100000000000000000001808000008000000aa
:080e20000000000000000000ca
:020000040000fa
:100e2800801f7800811f7800821f7800a080200032
:100e380031198000c508dd0031009800ae020200bb
:100e480000000000a0009000800420000008e600d8
:100e5800800078004388de00302288000623a9003d
:100e680091e0a9004f017800cf0078004f0078008a
:040e78000040060030
:00000001FF
